{
  "contractName": "RentMarket",
  "abi": [
    {
      "inputs": [],
      "stateMutability": "nonpayable",
      "type": "constructor"
    },
    {
      "anonymous": false,
      "inputs": [
        {
          "indexed": true,
          "internalType": "uint256",
          "name": "itemID",
          "type": "uint256"
        },
        {
          "indexed": false,
          "internalType": "string",
          "name": "name",
          "type": "string"
        },
        {
          "indexed": false,
          "internalType": "string",
          "name": "location",
          "type": "string"
        },
        {
          "indexed": false,
          "internalType": "string",
          "name": "country",
          "type": "string"
        },
        {
          "indexed": false,
          "internalType": "string",
          "name": "image",
          "type": "string"
        },
        {
          "indexed": false,
          "internalType": "address",
          "name": "owner",
          "type": "address"
        },
        {
          "indexed": false,
          "internalType": "uint256",
          "name": "price",
          "type": "uint256"
        }
      ],
      "name": "PropertyItemCreated",
      "type": "event"
    },
    {
      "inputs": [],
      "name": "owner",
      "outputs": [
        {
          "internalType": "address payable",
          "name": "",
          "type": "address"
        }
      ],
      "stateMutability": "view",
      "type": "function",
      "constant": true
    },
    {
      "inputs": [],
      "name": "getListingPrice",
      "outputs": [
        {
          "internalType": "uint256",
          "name": "",
          "type": "uint256"
        }
      ],
      "stateMutability": "view",
      "type": "function",
      "constant": true
    },
    {
      "inputs": [
        {
          "internalType": "string",
          "name": "name",
          "type": "string"
        },
        {
          "internalType": "string",
          "name": "location",
          "type": "string"
        },
        {
          "internalType": "string",
          "name": "country",
          "type": "string"
        },
        {
          "internalType": "string",
          "name": "image",
          "type": "string"
        },
        {
          "internalType": "uint256",
          "name": "price",
          "type": "uint256"
        }
      ],
      "name": "createProperty",
      "outputs": [],
      "stateMutability": "payable",
      "type": "function",
      "payable": true
    },
    {
      "inputs": [
        {
          "internalType": "uint256",
          "name": "propertyID",
          "type": "uint256"
        },
        {
          "internalType": "string",
          "name": "name",
          "type": "string"
        },
        {
          "internalType": "string",
          "name": "location",
          "type": "string"
        },
        {
          "internalType": "string",
          "name": "country",
          "type": "string"
        },
        {
          "internalType": "string",
          "name": "image",
          "type": "string"
        },
        {
          "internalType": "uint256",
          "name": "price",
          "type": "uint256"
        }
      ],
      "name": "updateProperty",
      "outputs": [],
      "stateMutability": "nonpayable",
      "type": "function"
    },
    {
      "inputs": [
        {
          "internalType": "uint256",
          "name": "propertyID",
          "type": "uint256"
        }
      ],
      "name": "removeProperty",
      "outputs": [],
      "stateMutability": "nonpayable",
      "type": "function"
    },
    {
      "inputs": [
        {
          "internalType": "uint256",
          "name": "propertyID",
          "type": "uint256"
        },
        {
          "internalType": "uint256",
          "name": "startDate",
          "type": "uint256"
        },
        {
          "internalType": "uint256",
          "name": "endDate",
          "type": "uint256"
        }
      ],
      "name": "bookProperty",
      "outputs": [],
      "stateMutability": "payable",
      "type": "function",
      "payable": true
    },
    {
      "inputs": [],
      "name": "fetchPropertiesFromHost",
      "outputs": [
        {
          "components": [
            {
              "internalType": "uint256",
              "name": "propertyID",
              "type": "uint256"
            },
            {
              "internalType": "string",
              "name": "name",
              "type": "string"
            },
            {
              "internalType": "string",
              "name": "location",
              "type": "string"
            },
            {
              "internalType": "string",
              "name": "country",
              "type": "string"
            },
            {
              "internalType": "string",
              "name": "image",
              "type": "string"
            },
            {
              "internalType": "address payable",
              "name": "owner",
              "type": "address"
            },
            {
              "internalType": "uint256",
              "name": "price",
              "type": "uint256"
            },
            {
              "components": [
                {
                  "internalType": "uint256",
                  "name": "bookingID",
                  "type": "uint256"
                },
                {
                  "internalType": "uint256",
                  "name": "startDate",
                  "type": "uint256"
                },
                {
                  "internalType": "uint256",
                  "name": "endDate",
                  "type": "uint256"
                },
                {
                  "internalType": "address payable",
                  "name": "guest",
                  "type": "address"
                },
                {
                  "internalType": "address payable",
                  "name": "owner",
                  "type": "address"
                },
                {
                  "internalType": "uint256",
                  "name": "propertyID",
                  "type": "uint256"
                }
              ],
              "internalType": "struct RentMarket.BookingItem[]",
              "name": "bookings",
              "type": "tuple[]"
            }
          ],
          "internalType": "struct RentMarket.PropertyItem[]",
          "name": "",
          "type": "tuple[]"
        }
      ],
      "stateMutability": "view",
      "type": "function",
      "constant": true
    },
    {
      "inputs": [],
      "name": "fetchBookingsFromUser",
      "outputs": [
        {
          "components": [
            {
              "internalType": "uint256",
              "name": "propertyID",
              "type": "uint256"
            },
            {
              "internalType": "string",
              "name": "name",
              "type": "string"
            },
            {
              "internalType": "string",
              "name": "location",
              "type": "string"
            },
            {
              "internalType": "string",
              "name": "country",
              "type": "string"
            },
            {
              "internalType": "string",
              "name": "image",
              "type": "string"
            },
            {
              "internalType": "address payable",
              "name": "owner",
              "type": "address"
            },
            {
              "internalType": "uint256",
              "name": "price",
              "type": "uint256"
            },
            {
              "components": [
                {
                  "internalType": "uint256",
                  "name": "bookingID",
                  "type": "uint256"
                },
                {
                  "internalType": "uint256",
                  "name": "startDate",
                  "type": "uint256"
                },
                {
                  "internalType": "uint256",
                  "name": "endDate",
                  "type": "uint256"
                },
                {
                  "internalType": "address payable",
                  "name": "guest",
                  "type": "address"
                },
                {
                  "internalType": "address payable",
                  "name": "owner",
                  "type": "address"
                },
                {
                  "internalType": "uint256",
                  "name": "propertyID",
                  "type": "uint256"
                }
              ],
              "internalType": "struct RentMarket.BookingItem[]",
              "name": "bookings",
              "type": "tuple[]"
            }
          ],
          "internalType": "struct RentMarket.PropertyItem[]",
          "name": "",
          "type": "tuple[]"
        }
      ],
      "stateMutability": "view",
      "type": "function",
      "constant": true
    },
    {
      "inputs": [],
      "name": "fetchUserProperties",
      "outputs": [
        {
          "internalType": "uint256[]",
          "name": "",
          "type": "uint256[]"
        }
      ],
      "stateMutability": "view",
      "type": "function",
      "constant": true
    },
    {
      "inputs": [],
      "name": "fetchPropertiesOnMarket",
      "outputs": [
        {
          "components": [
            {
              "internalType": "uint256",
              "name": "propertyID",
              "type": "uint256"
            },
            {
              "internalType": "string",
              "name": "name",
              "type": "string"
            },
            {
              "internalType": "string",
              "name": "location",
              "type": "string"
            },
            {
              "internalType": "string",
              "name": "country",
              "type": "string"
            },
            {
              "internalType": "string",
              "name": "image",
              "type": "string"
            },
            {
              "internalType": "address payable",
              "name": "owner",
              "type": "address"
            },
            {
              "internalType": "uint256",
              "name": "price",
              "type": "uint256"
            },
            {
              "components": [
                {
                  "internalType": "uint256",
                  "name": "bookingID",
                  "type": "uint256"
                },
                {
                  "internalType": "uint256",
                  "name": "startDate",
                  "type": "uint256"
                },
                {
                  "internalType": "uint256",
                  "name": "endDate",
                  "type": "uint256"
                },
                {
                  "internalType": "address payable",
                  "name": "guest",
                  "type": "address"
                },
                {
                  "internalType": "address payable",
                  "name": "owner",
                  "type": "address"
                },
                {
                  "internalType": "uint256",
                  "name": "propertyID",
                  "type": "uint256"
                }
              ],
              "internalType": "struct RentMarket.BookingItem[]",
              "name": "bookings",
              "type": "tuple[]"
            }
          ],
          "internalType": "struct RentMarket.PropertyItem[]",
          "name": "",
          "type": "tuple[]"
        }
      ],
      "stateMutability": "view",
      "type": "function",
      "constant": true
    },
    {
      "inputs": [
        {
          "internalType": "uint256",
          "name": "propertyID",
          "type": "uint256"
        }
      ],
      "name": "fetchProperty",
      "outputs": [
        {
          "components": [
            {
              "internalType": "uint256",
              "name": "propertyID",
              "type": "uint256"
            },
            {
              "internalType": "string",
              "name": "name",
              "type": "string"
            },
            {
              "internalType": "string",
              "name": "location",
              "type": "string"
            },
            {
              "internalType": "string",
              "name": "country",
              "type": "string"
            },
            {
              "internalType": "string",
              "name": "image",
              "type": "string"
            },
            {
              "internalType": "address payable",
              "name": "owner",
              "type": "address"
            },
            {
              "internalType": "uint256",
              "name": "price",
              "type": "uint256"
            },
            {
              "components": [
                {
                  "internalType": "uint256",
                  "name": "bookingID",
                  "type": "uint256"
                },
                {
                  "internalType": "uint256",
                  "name": "startDate",
                  "type": "uint256"
                },
                {
                  "internalType": "uint256",
                  "name": "endDate",
                  "type": "uint256"
                },
                {
                  "internalType": "address payable",
                  "name": "guest",
                  "type": "address"
                },
                {
                  "internalType": "address payable",
                  "name": "owner",
                  "type": "address"
                },
                {
                  "internalType": "uint256",
                  "name": "propertyID",
                  "type": "uint256"
                }
              ],
              "internalType": "struct RentMarket.BookingItem[]",
              "name": "bookings",
              "type": "tuple[]"
            }
          ],
          "internalType": "struct RentMarket.PropertyItem",
          "name": "",
          "type": "tuple"
        }
      ],
      "stateMutability": "view",
      "type": "function",
      "constant": true
    },
    {
      "inputs": [
        {
          "internalType": "uint256",
          "name": "bookingID",
          "type": "uint256"
        }
      ],
      "name": "fetchBooking",
      "outputs": [
        {
          "components": [
            {
              "internalType": "uint256",
              "name": "bookingID",
              "type": "uint256"
            },
            {
              "internalType": "uint256",
              "name": "startDate",
              "type": "uint256"
            },
            {
              "internalType": "uint256",
              "name": "endDate",
              "type": "uint256"
            },
            {
              "internalType": "address payable",
              "name": "guest",
              "type": "address"
            },
            {
              "internalType": "address payable",
              "name": "owner",
              "type": "address"
            },
            {
              "internalType": "uint256",
              "name": "propertyID",
              "type": "uint256"
            }
          ],
          "internalType": "struct RentMarket.BookingItem",
          "name": "",
          "type": "tuple"
        }
      ],
      "stateMutability": "view",
      "type": "function",
      "constant": true
    }
  ],
  "bytecode": "0x608060405266470de4df82000060055534801561001b57600080fd5b50600160008190555033600160006101000a81548173ffffffffffffffffffffffffffffffffffffffff021916908373ffffffffffffffffffffffffffffffffffffffff16021790555061451b806100746000396000f3fe6080604052600436106100a75760003560e01c80636989a649116100645780636989a649146101b15780638da5cb5b146101cd578063b49f7f43146101f8578063bc43d06f14610235578063cd0a3f071461025e578063ee20c8a814610289576100a7565b80630604e456146100ac57806309cb7347146100c857806312e85585146100f3578063518467c91461011e578063565fbf931461015b578063624d229514610186575b600080fd5b6100c660048036038101906100c1919061327e565b6102b2565b005b3480156100d457600080fd5b506100dd610638565b6040516100ea91906136f0565b60405180910390f35b3480156100ff57600080fd5b50610108611169565b6040516101159190613721565b60405180910390f35b34801561012a57600080fd5b506101456004803603810190610140919061373c565b611173565b60405161015291906137e4565b60405180910390f35b34801561016757600080fd5b506101706112d3565b60405161017d91906138ae565b60405180910390f35b34801561019257600080fd5b5061019b6113f0565b6040516101a891906136f0565b60405180910390f35b6101cb60048036038101906101c691906138d0565b6119fb565b005b3480156101d957600080fd5b506101e2612114565b6040516101ef9190613932565b60405180910390f35b34801561020457600080fd5b5061021f600480360381019061021a919061373c565b61213a565b60405161022c9190613a19565b60405180910390f35b34801561024157600080fd5b5061025c6004803603810190610257919061373c565b6125ac565b005b34801561026a57600080fd5b50610273612866565b60405161028091906136f0565b60405180910390f35b34801561029557600080fd5b506102b060048036038101906102ab9190613a3b565b612d56565b005b6002600054036102f7576040517f08c379a00000000000000000000000000000000000000000000000000000000081526004016102ee90613b95565b60405180910390fd5b600260008190555060008111610342576040517f08c379a000000000000000000000000000000000000000000000000000000000815260040161033990613c01565b60405180910390fd5b6005543414610386576040517f08c379a000000000000000000000000000000000000000000000000000000000815260040161037d90613c93565b60405180910390fd5b6103906002612f07565b600061039c6002612f1d565b90506000600660008381526020019081526020016000209050818160000181905550868160010190816103cf9190613ebf565b50858160020190816103e19190613ebf565b50848160030190816103f39190613ebf565b50838160040190816104059190613ebf565b50338160050160006101000a81548173ffffffffffffffffffffffffffffffffffffffff021916908373ffffffffffffffffffffffffffffffffffffffff1602179055508281600601819055506000600860003373ffffffffffffffffffffffffffffffffffffffff1673ffffffffffffffffffffffffffffffffffffffff1681526020019081526020016000206000015403610575576104a66003612f07565b60006104b26003612f1d565b90506000600860003373ffffffffffffffffffffffffffffffffffffffff1673ffffffffffffffffffffffffffffffffffffffff1681526020019081526020016000209050818160000181905550338160010160006101000a81548173ffffffffffffffffffffffffffffffffffffffff021916908373ffffffffffffffffffffffffffffffffffffffff1602179055508060020184908060018154018082558091505060019003906000526020600020016000909190919091505550506105e5565b6000600860003373ffffffffffffffffffffffffffffffffffffffff1673ffffffffffffffffffffffffffffffffffffffff168152602001908152602001600020905080600201839080600181540180825580915050600190039060005260206000200160009091909190915055505b817f7c9eab4af2f06c06a16a6c79dd8b5ffdbdaff2c60c2c2757f74df3ce52c4364288888888338960405161061f9695949392919061401f565b60405180910390a2505060016000819055505050505050565b60606000600860003373ffffffffffffffffffffffffffffffffffffffff1673ffffffffffffffffffffffffffffffffffffffff16815260200190815260200160002060000154036106e55760008067ffffffffffffffff8111156106a05761069f61311d565b5b6040519080825280602002602001820160405280156106d957816020015b6106c6612f2b565b8152602001906001900390816106be5790505b50905080915050611166565b6000600860003373ffffffffffffffffffffffffffffffffffffffff1673ffffffffffffffffffffffffffffffffffffffff16815260200190815260200160002060030180548060200260200160405190810160405280929190818152602001828054801561077357602002820191906000526020600020905b81548152602001906001019080831161075f575b505050505090506000815167ffffffffffffffff8111156107975761079661311d565b5b6040519080825280602002602001820160405280156107d057816020015b6107bd612f2b565b8152602001906001900390816107b55790505b5090506000808351111561115f5760005b835181101561115d576000600760008684815181106108035761080261409c565b5b602002602001015181526020019081526020016000206040518060c00160405290816000820154815260200160018201548152602001600282015481526020016003820160009054906101000a900473ffffffffffffffffffffffffffffffffffffffff1673ffffffffffffffffffffffffffffffffffffffff1673ffffffffffffffffffffffffffffffffffffffff1681526020016004820160009054906101000a900473ffffffffffffffffffffffffffffffffffffffff1673ffffffffffffffffffffffffffffffffffffffff1673ffffffffffffffffffffffffffffffffffffffff16815260200160058201548152505090506000600660008360a001518152602001908152602001600020604051806101000160405290816000820154815260200160018201805461093990613ce2565b80601f016020809104026020016040519081016040528092919081815260200182805461096590613ce2565b80156109b25780601f10610987576101008083540402835291602001916109b2565b820191906000526020600020905b81548152906001019060200180831161099557829003601f168201915b505050505081526020016002820180546109cb90613ce2565b80601f01602080910402602001604051908101604052809291908181526020018280546109f790613ce2565b8015610a445780601f10610a1957610100808354040283529160200191610a44565b820191906000526020600020905b815481529060010190602001808311610a2757829003601f168201915b50505050508152602001600382018054610a5d90613ce2565b80601f0160208091040260200160405190810160405280929190818152602001828054610a8990613ce2565b8015610ad65780601f10610aab57610100808354040283529160200191610ad6565b820191906000526020600020905b815481529060010190602001808311610ab957829003601f168201915b50505050508152602001600482018054610aef90613ce2565b80601f0160208091040260200160405190810160405280929190818152602001828054610b1b90613ce2565b8015610b685780601f10610b3d57610100808354040283529160200191610b68565b820191906000526020600020905b815481529060010190602001808311610b4b57829003601f168201915b505050505081526020016005820160009054906101000a900473ffffffffffffffffffffffffffffffffffffffff1673ffffffffffffffffffffffffffffffffffffffff1673ffffffffffffffffffffffffffffffffffffffff1681526020016006820154815260200160078201805480602002602001604051908101604052809291908181526020016000905b82821015610cfc57838290600052602060002090600602016040518060c00160405290816000820154815260200160018201548152602001600282015481526020016003820160009054906101000a900473ffffffffffffffffffffffffffffffffffffffff1673ffffffffffffffffffffffffffffffffffffffff1673ffffffffffffffffffffffffffffffffffffffff1681526020016004820160009054906101000a900473ffffffffffffffffffffffffffffffffffffffff1673ffffffffffffffffffffffffffffffffffffffff1673ffffffffffffffffffffffffffffffffffffffff16815260200160058201548152505081526020019060010190610bf6565b5050505081525050905060008160000151111561114857600660008360a0015181526020019081526020016000206040518061010001604052908160008201548152602001600182018054610d5090613ce2565b80601f0160208091040260200160405190810160405280929190818152602001828054610d7c90613ce2565b8015610dc95780601f10610d9e57610100808354040283529160200191610dc9565b820191906000526020600020905b815481529060010190602001808311610dac57829003601f168201915b50505050508152602001600282018054610de290613ce2565b80601f0160208091040260200160405190810160405280929190818152602001828054610e0e90613ce2565b8015610e5b5780601f10610e3057610100808354040283529160200191610e5b565b820191906000526020600020905b815481529060010190602001808311610e3e57829003601f168201915b50505050508152602001600382018054610e7490613ce2565b80601f0160208091040260200160405190810160405280929190818152602001828054610ea090613ce2565b8015610eed5780601f10610ec257610100808354040283529160200191610eed565b820191906000526020600020905b815481529060010190602001808311610ed057829003601f168201915b50505050508152602001600482018054610f0690613ce2565b80601f0160208091040260200160405190810160405280929190818152602001828054610f3290613ce2565b8015610f7f5780601f10610f5457610100808354040283529160200191610f7f565b820191906000526020600020905b815481529060010190602001808311610f6257829003601f168201915b505050505081526020016005820160009054906101000a900473ffffffffffffffffffffffffffffffffffffffff1673ffffffffffffffffffffffffffffffffffffffff1673ffffffffffffffffffffffffffffffffffffffff1681526020016006820154815260200160078201805480602002602001604051908101604052809291908181526020016000905b8282101561111357838290600052602060002090600602016040518060c00160405290816000820154815260200160018201548152602001600282015481526020016003820160009054906101000a900473ffffffffffffffffffffffffffffffffffffffff1673ffffffffffffffffffffffffffffffffffffffff1673ffffffffffffffffffffffffffffffffffffffff1681526020016004820160009054906101000a900473ffffffffffffffffffffffffffffffffffffffff1673ffffffffffffffffffffffffffffffffffffffff1673ffffffffffffffffffffffffffffffffffffffff1681526020016005820154815250508152602001906001019061100d565b505050508152505085858151811061112e5761112d61409c565b5b60200260200101819052508380611144906140fa565b9450505b50508080611155906140fa565b9150506107e1565b505b8193505050505b90565b6000600554905090565b61117b612f86565b60006007600084815260200190815260200160002060000154116111d4576040517f08c379a00000000000000000000000000000000000000000000000000000000081526004016111cb9061418e565b60405180910390fd5b6000600760008481526020019081526020016000206040518060c00160405290816000820154815260200160018201548152602001600282015481526020016003820160009054906101000a900473ffffffffffffffffffffffffffffffffffffffff1673ffffffffffffffffffffffffffffffffffffffff1673ffffffffffffffffffffffffffffffffffffffff1681526020016004820160009054906101000a900473ffffffffffffffffffffffffffffffffffffffff1673ffffffffffffffffffffffffffffffffffffffff1673ffffffffffffffffffffffffffffffffffffffff168152602001600582015481525050905080915050919050565b60606000600860003373ffffffffffffffffffffffffffffffffffffffff1673ffffffffffffffffffffffffffffffffffffffff168152602001908152602001600020600001541161135a576040517f08c379a0000000000000000000000000000000000000000000000000000000008152600401611351906141fa565b60405180910390fd5b600860003373ffffffffffffffffffffffffffffffffffffffff1673ffffffffffffffffffffffffffffffffffffffff1681526020019081526020016000206002018054806020026020016040519081016040528092919081815260200182805480156113e657602002820191906000526020600020905b8154815260200190600101908083116113d2575b5050505050905090565b60606000600860003373ffffffffffffffffffffffffffffffffffffffff1673ffffffffffffffffffffffffffffffffffffffff168152602001908152602001600020600001540361149d5760008067ffffffffffffffff8111156114585761145761311d565b5b60405190808252806020026020018201604052801561149157816020015b61147e612f2b565b8152602001906001900390816114765790505b509050809150506119f8565b6000600860003373ffffffffffffffffffffffffffffffffffffffff1673ffffffffffffffffffffffffffffffffffffffff16815260200190815260200160002060020180548060200260200160405190810160405280929190818152602001828054801561152b57602002820191906000526020600020905b815481526020019060010190808311611517575b505050505090506000815167ffffffffffffffff81111561154f5761154e61311d565b5b60405190808252806020026020018201604052801561158857816020015b611575612f2b565b81526020019060019003908161156d5790505b5090506000825111156119f25760005b82518110156119f057600660008483815181106115b8576115b761409c565b5b6020026020010151815260200190815260200160002060405180610100016040529081600082015481526020016001820180546115f490613ce2565b80601f016020809104026020016040519081016040528092919081815260200182805461162090613ce2565b801561166d5780601f106116425761010080835404028352916020019161166d565b820191906000526020600020905b81548152906001019060200180831161165057829003601f168201915b5050505050815260200160028201805461168690613ce2565b80601f01602080910402602001604051908101604052809291908181526020018280546116b290613ce2565b80156116ff5780601f106116d4576101008083540402835291602001916116ff565b820191906000526020600020905b8154815290600101906020018083116116e257829003601f168201915b5050505050815260200160038201805461171890613ce2565b80601f016020809104026020016040519081016040528092919081815260200182805461174490613ce2565b80156117915780601f1061176657610100808354040283529160200191611791565b820191906000526020600020905b81548152906001019060200180831161177457829003601f168201915b505050505081526020016004820180546117aa90613ce2565b80601f01602080910402602001604051908101604052809291908181526020018280546117d690613ce2565b80156118235780601f106117f857610100808354040283529160200191611823565b820191906000526020600020905b81548152906001019060200180831161180657829003601f168201915b505050505081526020016005820160009054906101000a900473ffffffffffffffffffffffffffffffffffffffff1673ffffffffffffffffffffffffffffffffffffffff1673ffffffffffffffffffffffffffffffffffffffff1681526020016006820154815260200160078201805480602002602001604051908101604052809291908181526020016000905b828210156119b757838290600052602060002090600602016040518060c00160405290816000820154815260200160018201548152602001600282015481526020016003820160009054906101000a900473ffffffffffffffffffffffffffffffffffffffff1673ffffffffffffffffffffffffffffffffffffffff1673ffffffffffffffffffffffffffffffffffffffff1681526020016004820160009054906101000a900473ffffffffffffffffffffffffffffffffffffffff1673ffffffffffffffffffffffffffffffffffffffff1673ffffffffffffffffffffffffffffffffffffffff168152602001600582015481525050815260200190600101906118b1565b50505050815250508282815181106119d2576119d161409c565b5b602002602001018190525080806119e8906140fa565b915050611598565b505b80925050505b90565b600260005403611a40576040517f08c379a0000000000000000000000000000000000000000000000000000000008152600401611a3790613b95565b60405180910390fd5b60026000819055506000600660008581526020019081526020016000206000015411611aa1576040517f08c379a0000000000000000000000000000000000000000000000000000000008152600401611a9890614266565b60405180910390fd5b600060066000858152602001908152602001600020905080600601543414611afe576040517f08c379a0000000000000000000000000000000000000000000000000000000008152600401611af5906142f8565b60405180910390fd5b6000600190505b81600701805490508111611cb5576000826007018281548110611b2b57611b2a61409c565b5b90600052602060002090600602016040518060c00160405290816000820154815260200160018201548152602001600282015481526020016003820160009054906101000a900473ffffffffffffffffffffffffffffffffffffffff1673ffffffffffffffffffffffffffffffffffffffff1673ffffffffffffffffffffffffffffffffffffffff1681526020016004820160009054906101000a900473ffffffffffffffffffffffffffffffffffffffff1673ffffffffffffffffffffffffffffffffffffffff1673ffffffffffffffffffffffffffffffffffffffff16815260200160058201548152505090506000816020015190506000826040015190506000828810158015611c3e5750818811155b80611c555750828710158015611c545750818711155b5b90506000151581151514611c9e576040517f08c379a0000000000000000000000000000000000000000000000000000000008152600401611c959061438a565b60405180910390fd5b505050508080611cad906140fa565b915050611b05565b50611cc06004612f07565b6000611ccc6004612f1d565b905060006040518060c001604052808381526020018681526020018581526020013373ffffffffffffffffffffffffffffffffffffffff1681526020018460050160009054906101000a900473ffffffffffffffffffffffffffffffffffffffff1673ffffffffffffffffffffffffffffffffffffffff168152602001846000015481525090508260070181908060018154018082558091505060019003906000526020600020906006020160009091909190915060008201518160000155602082015181600101556040820151816002015560608201518160030160006101000a81548173ffffffffffffffffffffffffffffffffffffffff021916908373ffffffffffffffffffffffffffffffffffffffff16021790555060808201518160040160006101000a81548173ffffffffffffffffffffffffffffffffffffffff021916908373ffffffffffffffffffffffffffffffffffffffff16021790555060a082015181600501555050806007600084815260200190815260200160002060008201518160000155602082015181600101556040820151816002015560608201518160030160006101000a81548173ffffffffffffffffffffffffffffffffffffffff021916908373ffffffffffffffffffffffffffffffffffffffff16021790555060808201518160040160006101000a81548173ffffffffffffffffffffffffffffffffffffffff021916908373ffffffffffffffffffffffffffffffffffffffff16021790555060a082015181600501559050506000600860003373ffffffffffffffffffffffffffffffffffffffff1673ffffffffffffffffffffffffffffffffffffffff168152602001908152602001600020600001540361202957611f5a6003612f07565b6000611f666003612f1d565b90506000600860003373ffffffffffffffffffffffffffffffffffffffff1673ffffffffffffffffffffffffffffffffffffffff1681526020019081526020016000209050818160000181905550338160010160006101000a81548173ffffffffffffffffffffffffffffffffffffffff021916908373ffffffffffffffffffffffffffffffffffffffff160217905550806003018490806001815401808255809150506001900390600052602060002001600090919091909150555050612099565b6000600860003373ffffffffffffffffffffffffffffffffffffffff1673ffffffffffffffffffffffffffffffffffffffff168152602001908152602001600020905080600301839080600181540180825580915050600190039060005260206000200160009091909190915055505b8260050160009054906101000a900473ffffffffffffffffffffffffffffffffffffffff1673ffffffffffffffffffffffffffffffffffffffff166108fc349081150290604051600060405180830381858888f19350505050158015612103573d6000803e3d6000fd5b505050506001600081905550505050565b600160009054906101000a900473ffffffffffffffffffffffffffffffffffffffff1681565b612142612f2b565b600060066000848152602001908152602001600020600001541161219b576040517f08c379a0000000000000000000000000000000000000000000000000000000008152600401612192906143f6565b60405180910390fd5b60006006600084815260200190815260200160002060405180610100016040529081600082015481526020016001820180546121d690613ce2565b80601f016020809104026020016040519081016040528092919081815260200182805461220290613ce2565b801561224f5780601f106122245761010080835404028352916020019161224f565b820191906000526020600020905b81548152906001019060200180831161223257829003601f168201915b5050505050815260200160028201805461226890613ce2565b80601f016020809104026020016040519081016040528092919081815260200182805461229490613ce2565b80156122e15780601f106122b6576101008083540402835291602001916122e1565b820191906000526020600020905b8154815290600101906020018083116122c457829003601f168201915b505050505081526020016003820180546122fa90613ce2565b80601f016020809104026020016040519081016040528092919081815260200182805461232690613ce2565b80156123735780601f1061234857610100808354040283529160200191612373565b820191906000526020600020905b81548152906001019060200180831161235657829003601f168201915b5050505050815260200160048201805461238c90613ce2565b80601f01602080910402602001604051908101604052809291908181526020018280546123b890613ce2565b80156124055780601f106123da57610100808354040283529160200191612405565b820191906000526020600020905b8154815290600101906020018083116123e857829003601f168201915b505050505081526020016005820160009054906101000a900473ffffffffffffffffffffffffffffffffffffffff1673ffffffffffffffffffffffffffffffffffffffff1673ffffffffffffffffffffffffffffffffffffffff1681526020016006820154815260200160078201805480602002602001604051908101604052809291908181526020016000905b8282101561259957838290600052602060002090600602016040518060c00160405290816000820154815260200160018201548152602001600282015481526020016003820160009054906101000a900473ffffffffffffffffffffffffffffffffffffffff1673ffffffffffffffffffffffffffffffffffffffff1673ffffffffffffffffffffffffffffffffffffffff1681526020016004820160009054906101000a900473ffffffffffffffffffffffffffffffffffffffff1673ffffffffffffffffffffffffffffffffffffffff1673ffffffffffffffffffffffffffffffffffffffff16815260200160058201548152505081526020019060010190612493565b5050505081525050905080915050919050565b6000600660008381526020019081526020016000206000015411612605576040517f08c379a00000000000000000000000000000000000000000000000000000000081526004016125fc906143f6565b60405180910390fd5b3373ffffffffffffffffffffffffffffffffffffffff166006600083815260200190815260200160002060050160009054906101000a900473ffffffffffffffffffffffffffffffffffffffff1673ffffffffffffffffffffffffffffffffffffffff16146126a9576040517f08c379a00000000000000000000000000000000000000000000000000000000081526004016126a090614462565b60405180910390fd5b6000600860003373ffffffffffffffffffffffffffffffffffffffff1673ffffffffffffffffffffffffffffffffffffffff16815260200190815260200160002090506000805b826002018054905081101561274157838360020182815481106127165761271561409c565b5b90600052602060002001540361272e57809150612741565b8080612739906140fa565b9150506126f0565b50816002016001836002018054905061275a9190614482565b8154811061276b5761276a61409c565b5b906000526020600020015482600201828154811061278c5761278b61409c565b5b9060005260206000200181905550816002018054806127ae576127ad6144b6565b5b60019003818190600052602060002001600090559055600660008481526020019081526020016000206000808201600090556001820160006127f09190612fe8565b6002820160006128009190612fe8565b6003820160006128109190612fe8565b6004820160006128209190612fe8565b6005820160006101000a81549073ffffffffffffffffffffffffffffffffffffffff0219169055600682016000905560078201600061285f9190613028565b5050505050565b606060006128746002612f1d565b905060008167ffffffffffffffff8111156128925761289161311d565b5b6040519080825280602002602001820160405280156128cb57816020015b6128b8612f2b565b8152602001906001900390816128b05790505b509050600080600190505b838111612d4c576000600660008381526020019081526020016000206000015490506000811115612d3857600060066000838152602001908152602001600020905080604051806101000160405290816000820154815260200160018201805461293f90613ce2565b80601f016020809104026020016040519081016040528092919081815260200182805461296b90613ce2565b80156129b85780601f1061298d576101008083540402835291602001916129b8565b820191906000526020600020905b81548152906001019060200180831161299b57829003601f168201915b505050505081526020016002820180546129d190613ce2565b80601f01602080910402602001604051908101604052809291908181526020018280546129fd90613ce2565b8015612a4a5780601f10612a1f57610100808354040283529160200191612a4a565b820191906000526020600020905b815481529060010190602001808311612a2d57829003601f168201915b50505050508152602001600382018054612a6390613ce2565b80601f0160208091040260200160405190810160405280929190818152602001828054612a8f90613ce2565b8015612adc5780601f10612ab157610100808354040283529160200191612adc565b820191906000526020600020905b815481529060010190602001808311612abf57829003601f168201915b50505050508152602001600482018054612af590613ce2565b80601f0160208091040260200160405190810160405280929190818152602001828054612b2190613ce2565b8015612b6e5780601f10612b4357610100808354040283529160200191612b6e565b820191906000526020600020905b815481529060010190602001808311612b5157829003601f168201915b505050505081526020016005820160009054906101000a900473ffffffffffffffffffffffffffffffffffffffff1673ffffffffffffffffffffffffffffffffffffffff1673ffffffffffffffffffffffffffffffffffffffff1681526020016006820154815260200160078201805480602002602001604051908101604052809291908181526020016000905b82821015612d0257838290600052602060002090600602016040518060c00160405290816000820154815260200160018201548152602001600282015481526020016003820160009054906101000a900473ffffffffffffffffffffffffffffffffffffffff1673ffffffffffffffffffffffffffffffffffffffff1673ffffffffffffffffffffffffffffffffffffffff1681526020016004820160009054906101000a900473ffffffffffffffffffffffffffffffffffffffff1673ffffffffffffffffffffffffffffffffffffffff1673ffffffffffffffffffffffffffffffffffffffff16815260200160058201548152505081526020019060010190612bfc565b5050505081525050858581518110612d1d57612d1c61409c565b5b60200260200101819052508380612d33906140fa565b945050505b508080612d44906140fa565b9150506128d6565b5081935050505090565b60008111612d99576040517f08c379a0000000000000000000000000000000000000000000000000000000008152600401612d9090613c01565b60405180910390fd5b6000600660008881526020019081526020016000206000015411612df2576040517f08c379a0000000000000000000000000000000000000000000000000000000008152600401612de9906143f6565b60405180910390fd5b3373ffffffffffffffffffffffffffffffffffffffff166006600088815260200190815260200160002060050160009054906101000a900473ffffffffffffffffffffffffffffffffffffffff1673ffffffffffffffffffffffffffffffffffffffff1614612e96576040517f08c379a0000000000000000000000000000000000000000000000000000000008152600401612e8d90614462565b60405180910390fd5b600060066000888152602001908152602001600020905085816001019081612ebe9190613ebf565b5084816002019081612ed09190613ebf565b5083816003019081612ee29190613ebf565b5082816004019081612ef49190613ebf565b5081816006018190555050505050505050565b6001816000016000828254019250508190555050565b600081600001549050919050565b6040518061010001604052806000815260200160608152602001606081526020016060815260200160608152602001600073ffffffffffffffffffffffffffffffffffffffff16815260200160008152602001606081525090565b6040518060c00160405280600081526020016000815260200160008152602001600073ffffffffffffffffffffffffffffffffffffffff168152602001600073ffffffffffffffffffffffffffffffffffffffff168152602001600081525090565b508054612ff490613ce2565b6000825580601f106130065750613025565b601f016020900490600052602060002090810190613024919061304c565b5b50565b50805460008255600602906000526020600020908101906130499190613069565b50565b5b8082111561306557600081600090555060010161304d565b5090565b5b808211156130ea57600080820160009055600182016000905560028201600090556003820160006101000a81549073ffffffffffffffffffffffffffffffffffffffff02191690556004820160006101000a81549073ffffffffffffffffffffffffffffffffffffffff021916905560058201600090555060060161306a565b5090565b6000604051905090565b600080fd5b600080fd5b600080fd5b600080fd5b6000601f19601f8301169050919050565b7f4e487b7100000000000000000000000000000000000000000000000000000000600052604160045260246000fd5b6131558261310c565b810181811067ffffffffffffffff821117156131745761317361311d565b5b80604052505050565b60006131876130ee565b9050613193828261314c565b919050565b600067ffffffffffffffff8211156131b3576131b261311d565b5b6131bc8261310c565b9050602081019050919050565b82818337600083830152505050565b60006131eb6131e684613198565b61317d565b90508281526020810184848401111561320757613206613107565b5b6132128482856131c9565b509392505050565b600082601f83011261322f5761322e613102565b5b813561323f8482602086016131d8565b91505092915050565b6000819050919050565b61325b81613248565b811461326657600080fd5b50565b60008135905061327881613252565b92915050565b600080600080600060a0868803121561329a576132996130f8565b5b600086013567ffffffffffffffff8111156132b8576132b76130fd565b5b6132c48882890161321a565b955050602086013567ffffffffffffffff8111156132e5576132e46130fd565b5b6132f18882890161321a565b945050604086013567ffffffffffffffff811115613312576133116130fd565b5b61331e8882890161321a565b935050606086013567ffffffffffffffff81111561333f5761333e6130fd565b5b61334b8882890161321a565b925050608061335c88828901613269565b9150509295509295909350565b600081519050919050565b600082825260208201905092915050565b6000819050602082019050919050565b61339e81613248565b82525050565b600081519050919050565b600082825260208201905092915050565b60005b838110156133de5780820151818401526020810190506133c3565b60008484015250505050565b60006133f5826133a4565b6133ff81856133af565b935061340f8185602086016133c0565b6134188161310c565b840191505092915050565b600073ffffffffffffffffffffffffffffffffffffffff82169050919050565b600061344e82613423565b9050919050565b61345e81613443565b82525050565b600081519050919050565b600082825260208201905092915050565b6000819050602082019050919050565b60c0820160008201516134a66000850182613395565b5060208201516134b96020850182613395565b5060408201516134cc6040850182613395565b5060608201516134df6060850182613455565b5060808201516134f26080850182613455565b5060a082015161350560a0850182613395565b50505050565b60006135178383613490565b60c08301905092915050565b6000602082019050919050565b600061353b82613464565b613545818561346f565b935061355083613480565b8060005b83811015613581578151613568888261350b565b975061357383613523565b925050600181019050613554565b5085935050505092915050565b6000610100830160008301516135a76000860182613395565b50602083015184820360208601526135bf82826133ea565b915050604083015184820360408601526135d982826133ea565b915050606083015184820360608601526135f382826133ea565b9150506080830151848203608086015261360d82826133ea565b91505060a083015161362260a0860182613455565b5060c083015161363560c0860182613395565b5060e083015184820360e086015261364d8282613530565b9150508091505092915050565b6000613666838361358e565b905092915050565b6000602082019050919050565b600061368682613369565b6136908185613374565b9350836020820285016136a285613385565b8060005b858110156136de57848403895281516136bf858261365a565b94506136ca8361366e565b925060208a019950506001810190506136a6565b50829750879550505050505092915050565b6000602082019050818103600083015261370a818461367b565b905092915050565b61371b81613248565b82525050565b60006020820190506137366000830184613712565b92915050565b600060208284031215613752576137516130f8565b5b600061376084828501613269565b91505092915050565b60c08201600082015161377f6000850182613395565b5060208201516137926020850182613395565b5060408201516137a56040850182613395565b5060608201516137b86060850182613455565b5060808201516137cb6080850182613455565b5060a08201516137de60a0850182613395565b50505050565b600060c0820190506137f96000830184613769565b92915050565b600081519050919050565b600082825260208201905092915050565b6000819050602082019050919050565b60006138378383613395565b60208301905092915050565b6000602082019050919050565b600061385b826137ff565b613865818561380a565b93506138708361381b565b8060005b838110156138a1578151613888888261382b565b975061389383613843565b925050600181019050613874565b5085935050505092915050565b600060208201905081810360008301526138c88184613850565b905092915050565b6000806000606084860312156138e9576138e86130f8565b5b60006138f786828701613269565b935050602061390886828701613269565b925050604061391986828701613269565b9150509250925092565b61392c81613443565b82525050565b60006020820190506139476000830184613923565b92915050565b6000610100830160008301516139666000860182613395565b506020830151848203602086015261397e82826133ea565b9150506040830151848203604086015261399882826133ea565b915050606083015184820360608601526139b282826133ea565b915050608083015184820360808601526139cc82826133ea565b91505060a08301516139e160a0860182613455565b5060c08301516139f460c0860182613395565b5060e083015184820360e0860152613a0c8282613530565b9150508091505092915050565b60006020820190508181036000830152613a33818461394d565b905092915050565b60008060008060008060c08789031215613a5857613a576130f8565b5b6000613a6689828a01613269565b965050602087013567ffffffffffffffff811115613a8757613a866130fd565b5b613a9389828a0161321a565b955050604087013567ffffffffffffffff811115613ab457613ab36130fd565b5b613ac089828a0161321a565b945050606087013567ffffffffffffffff811115613ae157613ae06130fd565b5b613aed89828a0161321a565b935050608087013567ffffffffffffffff811115613b0e57613b0d6130fd565b5b613b1a89828a0161321a565b92505060a0613b2b89828a01613269565b9150509295509295509295565b600082825260208201905092915050565b7f5265656e7472616e637947756172643a207265656e7472616e742063616c6c00600082015250565b6000613b7f601f83613b38565b9150613b8a82613b49565b602082019050919050565b60006020820190508181036000830152613bae81613b72565b9050919050565b7f50726963652063616e6e6f742062652073657420746f20667265650000000000600082015250565b6000613beb601b83613b38565b9150613bf682613bb5565b602082019050919050565b60006020820190508181036000830152613c1a81613bde565b9050919050565b7f5072696365206d75737420626520657175616c20746f206c697374696e67207060008201527f7269636500000000000000000000000000000000000000000000000000000000602082015250565b6000613c7d602483613b38565b9150613c8882613c21565b604082019050919050565b60006020820190508181036000830152613cac81613c70565b9050919050565b7f4e487b7100000000000000000000000000000000000000000000000000000000600052602260045260246000fd5b60006002820490506001821680613cfa57607f821691505b602082108103613d0d57613d0c613cb3565b5b50919050565b60008190508160005260206000209050919050565b60006020601f8301049050919050565b600082821b905092915050565b600060088302613d757fffffffffffffffffffffffffffffffffffffffffffffffffffffffffffffffff82613d38565b613d7f8683613d38565b95508019841693508086168417925050509392505050565b6000819050919050565b6000613dbc613db7613db284613248565b613d97565b613248565b9050919050565b6000819050919050565b613dd683613da1565b613dea613de282613dc3565b848454613d45565b825550505050565b600090565b613dff613df2565b613e0a818484613dcd565b505050565b5b81811015613e2e57613e23600082613df7565b600181019050613e10565b5050565b601f821115613e7357613e4481613d13565b613e4d84613d28565b81016020851015613e5c578190505b613e70613e6885613d28565b830182613e0f565b50505b505050565b600082821c905092915050565b6000613e9660001984600802613e78565b1980831691505092915050565b6000613eaf8383613e85565b9150826002028217905092915050565b613ec8826133a4565b67ffffffffffffffff811115613ee157613ee061311d565b5b613eeb8254613ce2565b613ef6828285613e32565b600060209050601f831160018114613f295760008415613f17578287015190505b613f218582613ea3565b865550613f89565b601f198416613f3786613d13565b60005b82811015613f5f57848901518255600182019150602085019450602081019050613f3a565b86831015613f7c5784890151613f78601f891682613e85565b8355505b6001600288020188555050505b505050505050565b6000613f9c826133a4565b613fa68185613b38565b9350613fb68185602086016133c0565b613fbf8161310c565b840191505092915050565b6000613fe5613fe0613fdb84613423565b613d97565b613423565b9050919050565b6000613ff782613fca565b9050919050565b600061400982613fec565b9050919050565b61401981613ffe565b82525050565b600060c08201905081810360008301526140398189613f91565b9050818103602083015261404d8188613f91565b905081810360408301526140618187613f91565b905081810360608301526140758186613f91565b90506140846080830185614010565b61409160a0830184613712565b979650505050505050565b7f4e487b7100000000000000000000000000000000000000000000000000000000600052603260045260246000fd5b7f4e487b7100000000000000000000000000000000000000000000000000000000600052601160045260246000fd5b600061410582613248565b91507fffffffffffffffffffffffffffffffffffffffffffffffffffffffffffffffff8203614137576141366140cb565b5b600182019050919050565b7f426f6f6b696e67206e6f7420666f756e64000000000000000000000000000000600082015250565b6000614178601183613b38565b915061418382614142565b602082019050919050565b600060208201905081810360008301526141a78161416b565b9050919050565b7f5573657220646f6573206e6f74206861766520616e206163636f756e74000000600082015250565b60006141e4601d83613b38565b91506141ef826141ae565b602082019050919050565b60006020820190508181036000830152614213816141d7565b9050919050565b7f50726f706572747920646f6573206e6f74206578697374000000000000000000600082015250565b6000614250601783613b38565b915061425b8261421a565b602082019050919050565b6000602082019050818103600083015261427f81614243565b9050919050565b7f5072696365206d75737420626520657175616c20746f2072656e74207072696360008201527f6500000000000000000000000000000000000000000000000000000000000000602082015250565b60006142e2602183613b38565b91506142ed82614286565b604082019050919050565b60006020820190508181036000830152614311816142d5565b9050919050565b7f426f6f6b696e6720686173206265656e2074616b656e2c20706c65617365206360008201527f686f6f736520616e6f7468657220646174650000000000000000000000000000602082015250565b6000614374603283613b38565b915061437f82614318565b604082019050919050565b600060208201905081810360008301526143a381614367565b9050919050565b7f50726f7065727479206e6f7420666f756e640000000000000000000000000000600082015250565b60006143e0601283613b38565b91506143eb826143aa565b602082019050919050565b6000602082019050818103600083015261440f816143d3565b9050919050565b7f596f7520646f206e6f74206f776e207468652070726f70657274790000000000600082015250565b600061444c601b83613b38565b915061445782614416565b602082019050919050565b6000602082019050818103600083015261447b8161443f565b9050919050565b600061448d82613248565b915061449883613248565b92508282039050818111156144b0576144af6140cb565b5b92915050565b7f4e487b7100000000000000000000000000000000000000000000000000000000600052603160045260246000fdfea2646970667358221220c97b2ec7679cda25eb0e1dc76717dfd6997f0d40e93ee4326b95e2e25bbf582d64736f6c63430008110033",
  "immutableReferences": {},
  "source": "// SPDX-License-Identifier: MIT\r\npragma solidity ^0.8.0;\r\n\r\nimport \"@openzeppelin/contracts/token/ERC721/ERC721.sol\";\r\nimport \"@openzeppelin/contracts/token/ERC721/extensions/ERC721URIStorage.sol\";\r\nimport \"@openzeppelin/contracts/utils/Counters.sol\";\r\nimport \"@openzeppelin/contracts/security/ReentrancyGuard.sol\";\r\n\r\ncontract RentMarket is ReentrancyGuard{\r\n    using Counters for Counters.Counter;\r\n    address payable public owner;\r\n    Counters.Counter private _propertyIDs;\r\n    Counters.Counter private _userIDs;\r\n    Counters.Counter private _bookingIDs;\r\n    uint256 listingPrice = 0.02 ether;\r\n\r\n    modifier onlyOwner(){\r\n        require(msg.sender == owner, \"untrusted message sender\");\r\n        _;\r\n    }\r\n\r\n    struct PropertyItem {\r\n        uint256 propertyID;\r\n        string name;\r\n        string location;\r\n        string country;\r\n        string image;\r\n        address payable owner;\r\n        uint256 price;\r\n        BookingItem[] bookings;\r\n        \r\n    }\r\n\r\n    struct BookingItem {\r\n        uint256 bookingID;\r\n        uint256 startDate;\r\n        uint256 endDate;\r\n        address payable guest;\r\n        address payable owner;\r\n        uint256 propertyID;\r\n    }\r\n\r\n    mapping(uint256 => PropertyItem) private _propertyItems;\r\n    mapping(uint256 => BookingItem) private _bookingItems;\r\n    event PropertyItemCreated (\r\n        uint indexed itemID,\r\n        string name,\r\n        string location,\r\n        string country,\r\n        string image,\r\n        address owner,\r\n        uint256 price\r\n    );\r\n\r\n    struct User {\r\n        uint256 userID;\r\n        address payable userAddress;\r\n        uint[] properties;\r\n        uint[] bookings;\r\n    }\r\n\r\n    mapping(address => User) private _users;\r\n\r\n    constructor(){\r\n        owner = payable(msg.sender);\r\n    }\r\n\r\n    function getListingPrice() public view returns (uint256){\r\n        return listingPrice;\r\n    }\r\n\r\n    // Lists a new item on the Rent Marketplace\r\n    function createProperty(string memory name, string memory location, string memory country, string memory image, uint256 price) public payable nonReentrant{\r\n        require(price > 0, \"Price cannot be set to free\");\r\n        require(msg.value == listingPrice, \"Price must be equal to listing price\");\r\n\r\n        _propertyIDs.increment();\r\n        uint256 propertyID = _propertyIDs.current();\r\n        PropertyItem storage propertyItem = _propertyItems[propertyID];\r\n        propertyItem.propertyID = propertyID;\r\n        propertyItem.name = name;\r\n        propertyItem.location = location;\r\n        propertyItem.country = country;\r\n        propertyItem.image = image;\r\n        propertyItem.owner = payable(msg.sender);\r\n        propertyItem.price = price;\r\n        \r\n        // Add new user\r\n        if (_users[msg.sender].userID == 0){\r\n            _userIDs.increment();\r\n            uint256 userID = _userIDs.current();\r\n            User storage user = _users[msg.sender];\r\n            user.userID = userID;\r\n            user.userAddress = payable(msg.sender);\r\n            user.properties.push(propertyID);          \r\n        }else{\r\n            User storage user = _users[msg.sender];\r\n            user.properties.push(propertyID);     \r\n        }\r\n\r\n        emit PropertyItemCreated(propertyID, name, location, country, image, payable(msg.sender), price);\r\n    }\r\n\r\n    function updateProperty(uint propertyID, string memory name, string memory location, string memory country, string memory image, uint256 price) public{\r\n        require(price > 0, \"Price cannot be set to free\");\r\n        require( _propertyItems[propertyID].propertyID > 0, \"Property not found\");\r\n        require( _propertyItems[propertyID].owner == msg.sender, \"You do not own the property\");\r\n\r\n        PropertyItem storage property = _propertyItems[propertyID];\r\n        property.name = name;\r\n        property.location = location;\r\n        property.country = country;\r\n        property.image = image;\r\n        property.price = price;\r\n    }\r\n\r\n    function removeProperty(uint propertyID) public{\r\n        require( _propertyItems[propertyID].propertyID > 0, \"Property not found\");\r\n        require( _propertyItems[propertyID].owner == msg.sender, \"You do not own the property\");\r\n        User storage user = _users[msg.sender];\r\n        uint index = 0;\r\n        for (uint i = 0; i < user.properties.length; i++){\r\n            if (user.properties[i] == propertyID){\r\n                index = i;\r\n                break;\r\n            }\r\n        }\r\n        user.properties[index] =  user.properties[user.properties.length - 1];\r\n        user.properties.pop();\r\n\r\n        delete _propertyItems[propertyID];\r\n    }\r\n\r\n    function bookProperty(uint propertyID, uint startDate, uint endDate) public payable nonReentrant{\r\n        require(_propertyItems[propertyID].propertyID > 0, \"Property does not exist\");\r\n        PropertyItem storage property = _propertyItems[propertyID];\r\n        require(msg.value == property.price, \"Price must be equal to rent price\");\r\n        // Check if booking date is already reserved\r\n        for (uint i = 1; i <= property.bookings.length; i++){\r\n            BookingItem memory bookingItem = property.bookings[i];\r\n            uint existingBookingStartDate = bookingItem.startDate;\r\n            uint existingBookingEndDate = bookingItem.endDate;\r\n            bool bookingExists = (startDate >= existingBookingStartDate && startDate <= existingBookingEndDate) || \r\n                            (endDate >= existingBookingStartDate && endDate <= existingBookingEndDate);\r\n            require(bookingExists == false, \"Booking has been taken, please choose another date\");\r\n        }\r\n\r\n        // Reserve the booking\r\n        _bookingIDs.increment();\r\n        uint256 bookingID = _bookingIDs.current();\r\n        BookingItem memory newBookingItem = BookingItem(bookingID, startDate, endDate, payable(msg.sender), property.owner, property.propertyID);\r\n        property.bookings.push(newBookingItem);\r\n        _bookingItems[bookingID] = newBookingItem;\r\n        if (_users[msg.sender].userID == 0){\r\n            _userIDs.increment();\r\n            uint256 userID = _userIDs.current();\r\n            User storage user = _users[msg.sender];\r\n            user.userID = userID;\r\n            user.userAddress = payable(msg.sender);\r\n            user.bookings.push(bookingID);          \r\n        }else{\r\n            User storage user = _users[msg.sender];\r\n            user.bookings.push(bookingID);     \r\n        }\r\n\r\n        property.owner.transfer(msg.value);\r\n    }\r\n\r\n    // Fetches all properties from a particular host\r\n    function fetchPropertiesFromHost() public view returns (PropertyItem[] memory){\r\n        if (_users[msg.sender].userID == 0){\r\n            PropertyItem[] memory properties = new PropertyItem[](0);\r\n            return properties;\r\n        }else{\r\n            // Use property IDs from host to return list of property data\r\n            uint256[] memory propertyIDs = _users[msg.sender].properties;\r\n            PropertyItem[] memory properties = new PropertyItem[](propertyIDs.length);\r\n            if (propertyIDs.length > 0){\r\n                for (uint i = 0; i < propertyIDs.length; i++){\r\n                    properties[i] = _propertyItems[propertyIDs[i]];\r\n                }\r\n            }\r\n            return properties;\r\n        }\r\n    }\r\n\r\n    // Fetches all bookings from a particular host\r\n    function fetchBookingsFromUser() public view returns (PropertyItem[] memory){\r\n        if (_users[msg.sender].userID == 0){\r\n            PropertyItem[] memory properties = new PropertyItem[](0);\r\n            return properties;\r\n        }else{\r\n            // Use property IDs from host to return list of property data\r\n            uint256[] memory bookingsIDs = _users[msg.sender].bookings;\r\n            PropertyItem[] memory properties = new PropertyItem[](bookingsIDs.length);\r\n            uint propertyIndex = 0;\r\n            if (bookingsIDs.length > 0){\r\n                for (uint i = 0; i < bookingsIDs.length; i++){\r\n                    BookingItem memory bookingItem = _bookingItems[bookingsIDs[i]];\r\n                    PropertyItem memory item = _propertyItems[bookingItem.propertyID];\r\n                    if (item.propertyID > 0){\r\n                        properties[propertyIndex] = _propertyItems[bookingItem.propertyID];\r\n                        propertyIndex++;\r\n                    }\r\n                }\r\n            }\r\n            return properties;\r\n        }\r\n    }\r\n\r\n    function fetchUserProperties() public view returns (uint[] memory){\r\n        require(_users[msg.sender].userID > 0, \"User does not have an account\");\r\n        return _users[msg.sender].properties;\r\n    }\r\n\r\n    function fetchPropertiesOnMarket() public view returns (PropertyItem[] memory){\r\n        uint totalItems = _propertyIDs.current();\r\n\r\n        PropertyItem[] memory items = new PropertyItem[](totalItems);\r\n        uint index = 0;\r\n        for (uint i = 1; i <= totalItems; i++){\r\n            uint currentItemID = _propertyItems[i].propertyID;\r\n            if (currentItemID > 0){\r\n                PropertyItem storage currentItem = _propertyItems[currentItemID];\r\n                items[index] = currentItem;\r\n                index++;\r\n            }\r\n        }\r\n\r\n        return items;\r\n    }\r\n\r\n    function fetchProperty(uint propertyID) public view returns (PropertyItem memory){\r\n        require( _propertyItems[propertyID].propertyID > 0, \"Property not found\");\r\n        PropertyItem memory property = _propertyItems[propertyID];\r\n        return property;\r\n    }\r\n\r\n    function fetchBooking(uint bookingID) public view returns (BookingItem memory){\r\n        require( _bookingItems[bookingID].bookingID > 0, \"Booking not found\");\r\n        BookingItem memory booking = _bookingItems[bookingID];\r\n        return booking;\r\n    }\r\n}",
  "sourcePath": "d:\\VS Projects\\Rent-App\\rent-app\\contracts\\RentMarket.sol",
  "compiler": {
    "name": "solc",
    "version": "0.8.17+commit.8df45f5f.Emscripten.clang"
  },
  "schemaVersion": "3.4.10",
  "updatedAt": "2022-10-18T23:28:19.179Z",
  "networkType": "ethereum",
  "devdoc": {
    "kind": "dev",
    "methods": {},
    "version": 1
  },
  "userdoc": {
    "kind": "user",
    "methods": {},
    "version": 1
  }
}